:1000000000000120B5090000DD090000DF09000043
:10001000E1090000E3090000E5090000000000001C
:10002000000000000000000000000000E7090000E0
:10003000E909000000000000EB090000ED090000E4
:10004000EF090000EF090000EF090000EF090000D0
:10005000EF090000EF090000EF090000EF090000C0
:10006000EF090000EF090000EF090000EF090000B0
:10007000EF090000EF090000EF090000EF090000A0
:10008000EF090000EF090000EF090000EF09000090
:10009000EF090000EF090000EF090000EF09000080
:1000A000EF090000EF090000EF090000EF09000070
:1000B000EF090000EF090000000000000000000050
:1000C000EF090000EF090000EF090000EF09000050
:1000D000EF090000EF090000EF0900000000000038
:1000E0000000000000000000000000000000000010
:1000F0000000000000000000000000000000000000
:1001000000000000000000000000000000000000EF
:1001100000000000000000000000000000000000DF
:1004000010B5054C237833B9044B13B10448AFF34E
:1004100000800123237010BD740000200000000044
:10042000E81E0000084B10B51BB108490848AFF39F
:1004300000800848036803B910BD074B002BFBD0B0
:10044000BDE81040184700BF000000007800002001
:10045000E81E00007000002000000000154B002B7B
:1004600008BF134B9D46A3F5803A00218B460F46EB
:100470001348144A121A00F045FD0F4B002B00D010
:1004800098470E4B002B00D0984700200021040015
:100490000D000D48002802D00C48AFF3008000F09A
:1004A0000BFD2000290000F077F800F0F1FC00BF00
:1004B0000000080000000120000000000000000013
:1004C00074000020940000200000000000000000E4
:1004D00080B485B000AF7860254BFB607B68002B53
:1004E00040D0244B1A6822497B6800BF00BF00BF80
:1004F00000BF00BF00BF00BF00BF8A422FD000BFB7
:1005000000BF00BF00BF00BF00BF00BF00BF00BFF3
:1005100000BF00BF00BF00BF00BF00BF00BF00BFE3
:1005200000BF00BF00BF00BF00BF00BF00BF00BFD3
:1005300000BF00BF00BF00BF00BF00BF00BF00BFC3
:1005400000BF00BF00BF00BF00BF00BF00BF00BFB3
:1005500000BF00BF00BF00BF00BF00BF00BF013B26
:10056000C3D17B6000BF1437BD465DF8047B704784
:100570000024F4000000002080B582B000AF786055
:100580007B684FF47A7202FB03F31846FFF7A0FF73
:1005900000BF0837BD4680BD80B586B000AF00F013
:1005A000AFF900237B617B69032B0ADC7B6918466A
:1005B00000F05CF9C820FFF7DFFF7B6901337B6146
:1005C000F1E700F0DDF900233B613B69032B0ADC16
:1005D0003B69184600F05CF9C820FFF7CDFF3B6986
:1005E00001333B61F1E70023FB60FB68032B32DC46
:1005F000FB685B0007F11802134413F8132CFB6827
:100600005B0007F118010B4403F8142CFB68184633
:1006100000F092F903461A46FB685B0007F11801E7
:100620000B4403F8132CFB685B0007F1180213441A
:1006300013F8142CFB685B0007F118010B4413F846
:10064000133C9A4203D2FB68184600F047F9FB6856
:100650000133FB60C9E76420FFF78EFFC3E700BFEB
:1006600080B483B000AF78604FF0A04318460C37D9
:10067000BD465DF8047B704780B584B000AF7860FC
:10068000084611461A460346FB700B46BB701346DC
:100690007B703B1D1846FFF7E3FFF8607A68F97836
:1006A000BB785B0019437B789B0019433B7E1B02A0
:1006B00019433B7F1B041943FB6802F5E07243F8C2
:1006C000221000BF1037BD4680BD00BF80B584B08A
:1006D00002AF7860002301930023009300230122DE
:1006E00001217868FFF7C8FF00BF0837BD4680BD0D
:1006F00080B584B002AF78600B46FB70FA780023B7
:100700000193002300931346002200217868FFF72D
:10071000B3FF00BF0837BD4680BD00BF80B584B0C1
:1007200000AF78603B1D1846FFF79AFFF8607B68C2
:10073000012202FA03F31946F86800F077F800BFC7
:100740001037BD4680BD00BF80B584B000AF786073
:100750003B1D1846FFF784FFF8607B68012202FA10
:1007600003F31946F86800F071F800BF1037BD4672
:1007700080BD00BF80B584B000AF78603B1D1846D7
:10078000FFF76EFFF860FB68D3F80435BB60BB6809
:10079000DA437B68012101FA03F31A40FB68C3F8CE
:1007A00008257B6801229A40BB681A40FB68C3F8A1
:1007B0000C2500BF1037BD4680BD00BF80B582B09C
:1007C00000AF786039603B68002B03D17868FFF791
:1007D000BBFF02E07868FFF7A1FF00BF0837BD4606
:1007E00080BD00BF80B584B000AF78603B1D184667
:1007F000FFF736FFF860F86800F00AF802467B68F9
:1008000022FA03F303F0010318461037BD4680BDFA
:1008100080B483B000AF78607B68D3F81035184699
:100820000C37BD465DF8047B704700BF80B483B0D1
:1008300000AF786039607B683A68C3F8082500BF6C
:100840000C37BD465DF8047B704700BF80B483B0B1
:1008500000AF786039607B683A68C3F80C2500BF48
:100860000C37BD465DF8047B704700BF80B582B091
:1008700000AF7860054A7B6813441B780021184656
:10088000FFF79CFF00BF0837BD4680BDDC1E00009F
:1008900080B582B000AF7860054A7B6813441B784E
:1008A00001211846FFF78AFF00BF0837BD4680BD0B
:1008B000DC1E000080B582B000AF00237B6005E045
:1008C0007868FFF7E5FF7B6801337B607B68032B6B
:1008D000F6D900BF0837BD4680BD00BF80B582B0E5
:1008E00000AF7860054A7B6813441B781846FFF711
:1008F00041FF00BF0837BD4680BD00BFDC1E0000C1
:1009000080B582B000AF00237B6009E0094A7B68B4
:1009100013441B781846FFF7D9FE7B6801337B60D0
:100920007B68032BF2D9FFF7C5FF00BF0837BD4630
:1009300080BD00BFDC1E000080B584B000AF7860D1
:100940000E4A7B6813441B781846FFF74BFF03469B
:10095000002B14BF01230023FB73FB7B002B14BF70
:1009600001230023DBB283F00103DBB203F00103B8
:10097000DBB218461037BD4680BD00BFE01E000048
:1009800080B582B000AF00237B600AE0084A7B6834
:1009900013441B7803211846FFF7AAFE7B68013336
:1009A0007B607B68032BF1D900BF0837BD4680BD53
:1009B000E01E00000649074A074B9B1A03DD043B73
:1009C000C858D050FBDC00F021F8FFF747FD0000CD
:1009D000D81F00000000002074000020FEE7FEE7A2
:1009E000FEE7FEE7FEE7FEE7FEE7FEE7FEE7FEE7DF
:1009F00080B400AF034B044A1A6000BFBD465DF8E7
:100A0000047B7047000000200090D00380B500AF49
:100A100000F0FEF80346002B02D06F4B6F4A1A60BD
:100A200000F018F90346002B06D06D4A6D4B1B6889
:100A300003F460435B0B136000F03EF90346002BA8
:100A400005D0694A684BDB6823F08073D36000F0FF
:100A500055F90346002B0ED04FF080430022C3F817
:100A60000C214FF080430022C3F810214FF0804347
:100A70000022C3F8382500F073F90346002B02D09A
:100A80005A4B03221A6000F08DF90346002B0BD05D
:100A9000574B05221A60574B01221A60564B002211
:100AA0001A60564B3F221A6000F09EF90346002B55
:100AB00076D0534A4FF08053D3F80434C2F820352F
:100AC0004F4A4FF08053D3F80834C2F824354C4ACB
:100AD0004FF08053D3F80C34C2F82835484A4FF011
:100AE0008053D3F81034C2F82C35454A4FF0805368
:100AF000D3F81434C2F83035414A4FF08053D3F85C
:100B00001834C2F834353E4A4FF08053D3F81C34C1
:100B1000C2F840353A4A4FF08053D3F82034C2F837
:100B20004435374A4FF08053D3F82434C2F848355F
:100B3000334A4FF08053D3F82834C2F84C35304A4A
:100B40004FF08053D3F82C34C2F850352C4A4FF074
:100B50008053D3F83034C2F85435294A4FF08053CB
:100B6000D3F83434C2F86035254A4FF08053D3F8B7
:100B70003834C2F86435224A4FF08053D3F83C34FD
:100B8000C2F868351E4A4FF08053D3F84034C2F89B
:100B90006C351B4A4FF08053D3F84434C2F870359B
:100BA00000F044F90346002B05D0164A164B1B688B
:100BB00003F04F031360154A144BD3F8883043F405
:100BC0007003C2F88830BFF34F8FBFF36F8FFFF70A
:100BD0000FFF00BF80BD00BF74C007400DF0ADBA6D
:100BE0003C05004044020010F0ED00E0A00500408C
:100BF00010560040885600401856004014560040D9
:100C000000C00040E40E00405802001000ED00E07B
:100C100080B400AF0C4B1B68DBB2062B0DD10B4B25
:100C20001B6803F00F03002B07D1094B1B6803F06F
:100C3000F003302B01D1012300E000231846BD460C
:100C40005DF8047B704700BFE00F00F0E40F00F098
:100C5000E80F00F080B400AF144B1B68DBB2062B2A
:100C60001DD1134B1B6803F00F03002B17D1114B41
:100C70001B6803F0F003302B01D1012310E00D4B72
:100C80001B6803F0F003402B01D1012308E0094B5E
:100C90001B6803F0F003502B01D1012300E0002377
:100CA0001846BD465DF8047B704700BFE00F00F0BA
:100CB000E40F00F0E80F00F080B400AF0C4B1B68AD
:100CC000DBB2062B0DD10B4B1B6803F00F03002B7F
:100CD00007D1094B1B6803F0F003302B01D101232E
:100CE00000E000231846BD465DF8047B704700BF56
:100CF000E00F00F0E40F00F0E80F00F080B400AF68
:100D0000144B1B68DBB2062B1DD1134B1B6803F081
:100D10000F03002B17D1114B1B6803F0F003302B8E
:100D200001D1012310E00D4B1B6803F0F003402BB1
:100D300001D1012308E0094B1B6803F0F003502B9D
:100D400001D1012300E000231846BD465DF8047B75
:100D5000704700BFE00F00F0E40F00F0E80F00F074
:100D600080B400AF0C4B1B68DBB2062B0DD10B4BD4
:100D70001B6803F00F03002B07D1094B1B6803F01E
:100D8000F003302B01D1012300E000231846BD46BB
:100D90005DF8047B704700BFE00F00F0E40F00F047
:100DA000E80F00F080B400AF0C4B1B68DBB2062BE1
:100DB0000DD10B4B1B6803F00F03002B07D1094B20
:100DC0001B6803F0F003302B01D1012300E0002366
:100DD0001846BD465DF8047B704700BFE00F00F089
:100DE000E40F00F0E80F00F080B400AF0C4B1B687C
:100DF000DBB2062B0DD10B4B1B6803F00F03002B4E
:100E000007D1094B1B6803F0F003502B01D10123DC
:100E100000E000231846BD465DF8047B704700BF24
:100E2000E00F00F0E40F00F0E80F00F080B400AF36
:100E3000144B1B68DBB2062B1DD1134B1B6803F050
:100E40000F03002B17D1114B1B6803F0F003302B5D
:100E500001D1012310E00D4B1B6803F0F003402B80
:100E600001D1012308E0094B1B6803F0F003502B6C
:100E700001D1012300E000231846BD465DF8047B44
:100E8000704700BFE00F00F0E40F00F0E80F00F043
:100E900008B5074B044613B10021AFF30080054BA2
:100EA0001868836A03B19847204601F009F800BF2B
:100EB00000000000E41E000070B50E4B0E4CE41A5A
:100EC000A41000251E46A54204D056F825309847A8
:100ED0000135F8E700F0F6FF084C094BE41AA410BE
:100EE00000251E46A54204D056F825309847013506
:100EF000F8E770BD68000020680000206C0000204A
:100F00006800002002440346934202D003F8011B0C
:100F1000FAE7704703685A004CBF43F0004323F0E0
:100F200000431844704700BF61B32DE9F84F01F149
:100F3000FF3A90460646D146002707EB090404EB2A
:100F4000D4746410E50071190846FFF7E3FFA24569
:100F5000834605F10800304409D0FFF7DBFFC345A5
:100F600000F1FF3005D8404509D2671CE5E7C345CD
:100F700005D9A74202D004F1FF39DEE70021084677
:100F8000BDE8F88F08467047012807D0022807D02F
:100F9000044B00280CBF18460020704702487047D9
:100FA0000248704795160000991600009D16000033
:100FB00030B5244B83B004468D1E7BB301A928466F
:100FC000AFF3008020B301992A46FFF7ADFF014639
:100FD000F0B1FFF79FFF4B68A064012B12D0002BEC
:100FE00001F1040020DBFFF795FF0023E064236597
:100FF0000368002B1CDBFFF78DFF002320611846E0
:1010000003B030BD002323610523184603B030BD73
:10101000002323610923184603B030BD0A490B4859
:10102000091AC9100191CFE70123E0642365DFE7C6
:10103000C3F30360FFF7A8FF0028206114BF00235B
:101040000923DCE700000000D81F0000101F00008B
:101050000368DA0710B5044606D49B0700F1480080
:1010600009D500F059FC2368590709D51A070ED590
:10107000DB0613D510BD00F047FC23685907F5D4F3
:1010800004F1D00000F050FC23681A07F0D404F5F6
:10109000A87000F051FC2368DB06EBD404F5E8707F
:1010A000BDE8104000F08CBC03680BB118447047D9
:1010B0001846704709207047704700BF70B5044656
:1010C0000D4608E02B6C63612A4623692146012006
:1010D0009847082808D1296C2046FFF769FF064683
:1010E0000028EFD000F084FE0728FBD13046296CA1
:1010F000FFF7E2FF281D00F0FBFB00BF2DE9F047E2
:101100000C1D064617460FCCADF5727D03AD0FC51D
:101110000FCC0FC50FCC0FC594E80F0002ACD6F86A
:101120000C80D6F8189085E80F0000233046216C1B
:101130002360FFF73DFF002F054614BF0A2709274C
:101140007DB1A36B47F010018DE810023246636455
:1011500001203346C04778BB28460DF5727DBDE8B7
:10116000F087236C73614FF4F07221467AA800F087
:1011700046FE33697AAA314638469847889B8246AC
:101180008DE8100239466364324633460120C04779
:1011900090B94FF4F0727AA9204600F030FEBAF10F
:1011A000080F06D1216C3046FFF702FF09270546DC
:1011B000C6E7BAF1070F04D009200DF5727DBDE82E
:1011C000F0872846216CFFF777FF03A800F090FB1B
:1011D000406C7047F0B5CB6B0B640E1D0F46044698
:1011E0000FCEF9B001AD0FC50FCE0FC50FCE0FC595
:1011F00096E80F004FF0FF3685E80F00009606E0F6
:1012000023696A46214698470828054608D110995F
:101210002046FFF7CDFE0028F2D0092079B0F0BDBE
:101220006846FFF715FF062DF7D139462046FFF730
:1012300045FF00BF30B4DD6BC160826119461D649B
:10124000002230BC5AE700BF70B5C66843690B6422
:1012500026B10122FFF752FF00F0CAFD03690A46DA
:1012600004460D46014602209847072807D0082863
:1012700003D129462046FFF721FF00F0B9FD304693
:10128000296CFFF719FF281D00F032FBC2681AB164
:10129000CA6B0A64002231E79CE700BF704700BFB9
:1012A000836813B1014601201847704700B504292F
:1012B00007D8DFE801F00309060909000BB90F2A76
:1012C00005D902205DF804FB01205DF804FB00EB6A
:1012D000820218465368019A13605DF804FB00BF50
:1012E00010B584B0002303AC0A4600941946FFF7FA
:1012F000DDFF039804B010BD00B5042907D8DFE86E
:1013000001F00309060909000BB90F2A05D90220CB
:101310005DF804FB01205DF804FB019900EB8202FB
:101320000968516018465DF804FB00BF10B584B031
:1013300004AC002344F8042D0A4600941946FFF734
:10134000DBFF04B010BD00BFF0B5D36B1364151DF7
:1013500007460E460FCDADF50F7D17AC0FC40FCD70
:101360000FC40FCD0FC495E80F004FF0FF3584E890
:101370000F00169510E016A8FFF7D8FF314616A803
:10138000B84716AA694678B9049B082098470528EB
:1013900004460AD0092807D026996846FFF708FEB8
:1013A0006A460C210028E6D0092416A8FFF750FE53
:1013B00020460DF50F7DF0BD2DE9F04F0D46C96CAF
:1013C0008BB00C1D096807919146089400F0030B3F
:1013D0001E46002B64D10902032307918DF8256076
:1013E0008DF824302B6DBBF1020F08BFAC6B13F0EE
:1013F000010343D100F00800C2B2039201932768B1
:10140000002F3DD0022E47D02788B4F80280043444
:10141000AB6C28F0010A0F2148469A44FFF760FFA1
:10142000824537D827F001039A4450452CBF00204D
:1014300001204FEA480808F0020807F0010748EACF
:101440000708B8F1010F41D038D3B8F1020F1DD110
:10145000236823F000420292BBF1000F79D130B132
:101460000399002900F08180002A00F0A880002B59
:1014700079DB029B013304EB8304C0E70023019373
:10148000022E40DDFFF716FE002842D009200BB0E7
:10149000BDE8F08F0020CCE7D4F804800834B7E72B
:1014A000022B9FDC0B0CDAB209048DF825300223E5
:1014B00004EB820407918DF8243093E7BBF1000F11
:1014C00002D0002840F0B080043498E7BBF1000F50
:1014D00026D1B0B194E80C00991C4FEAD272D5D055
:1014E00005F158010133069100F09480201DFFF7AB
:1014F000DBFD06AB01462846AFF30080002840F034
:10150000B88008347BE707A9484600F0F3FA0028C2
:10151000BCD1019B002B5CD108200BB0BDE8F08F43
:101520000D2148462F6AFFF7DBFE8742E9D1AB6AFF
:101530009C42E6D12046FFF7EDFC0F2102464846CB
:10154000FFF7F4FE48462A460021FFF7EFFE07208A
:101550009DE70D2148462F6AFFF7C2FE874248D01B
:101560002368002B85DA043483E7029B3BB305F143
:101570005803271DCDF810B0DDF80C80DDF808A069
:101580000596A3461C4602E0B245B04616D0384642
:101590000694FFF789FD06AB014600222846AFF30B
:1015A000008008F1010604370028EDD0029B059E5B
:1015B00043455C46DDF810B0D2D100E05C464846B9
:1015C0000D21FFF78DFE069B2862AC626B62062040
:1015D0005DE70F214846FFF783FE0E21024648468D
:1015E000FFF7A4FE48462A4A0F21FFF79FFE072077
:1015F0004DE7AB6A9C42B3D104220027A31802999D
:10160000A962EF622A636B632368BB421FDB01237D
:1016100001932EE748460D21FFF762FE2862069BE4
:101620006B62AC62062032E72046FFF773FC04349D
:101630000646AC632846AFF3008000283FF426AF8F
:10164000484632460F21FFF771FE07201FE7084684
:10165000013004EB8000FFF75DFC0F210246484695
:10166000FFF764FE48462A463946FFF75FFE07202B
:101670000DE707460D214846FFF732FE022F28628C
:10168000CDD12B46069A43F82C2F6B62C9E700BFD9
:101690000000000000238FE601238DE602238BE685
:1016A000F0B50446C5B004290DD8DFE801F05703B2
:1016B0000C310F00012B4FEA124695B266D1721918
:1016C000102A40F29F80022045B0F0BD002BFAD1D5
:1016D000102AF8D82368D80600F1C98022AE304617
:1016E000019200F077F9A06B019A0023012505FA19
:1016F00003F1114203D0016846F82310043001338E
:10170000042BF4D1A063304600F05AF90020DBE747
:10171000032BD8D1150C97B2EB19102BD3D8236813
:101720001E0700F1B88022AE30467F0000F026F997
:1017300006EBC5027B1EA56B57B1043A294651F84A
:10174000040B42F8040F013B581CF8D105EB870548
:101750003046A56300F0F0F80020B5E7002BB2D1C9
:10176000A56B97B2201D012606FA03F1394203F159
:10177000010302D0296801600435102B00F1040038
:10178000F2D112F400503BD1A5639DE7052B9AD10D
:101790007719202F97D80F2E65D92F46002D48D1C5
:1017A0002A460027002AA06B71DD00EBC202014629
:1017B00044A800EBC6008C3851F8045B40F8045F85
:1017C0009142F9D1084697B1102E324644A938BF4C
:1017D000102201EBC202A2F5C4727900043A00EBB8
:1017E000810150F8045B42F8045F8142F9D1012B7A
:1017F00047D00F2EA16332D917B102A800F094F898
:10180000002061E70F2E3FF65EAF00272268D10768
:101810000DD522F00101052B21600193204652D005
:1018200022F0030240F8482B00F072F8019B002FD1
:1018300051D02268510736D4012B3ED00F2E06D846
:1018400022A8019300F06CF8019B002FA8D002A8F9
:10185000019300F06DF8019BC6F11002A2E722A8E7
:1018600000F05AF8C8E7102FCFD9103FCEE723F089
:101870001003236004F5E870019200F0ABF8019AC0
:101880002CE70431A16322A800F03EF8B8E7002F4E
:101890009AD10146ABE723F00803236004F5A87052
:1018A00000F06CF83FE7204622F0040240F8D02B0D
:1018B000019300F03DF8019BBEE722A8019300F0E0
:1018C00027F8019BC8E741F0020140F8481B00F0EF
:1018D00027F8019BABE7012B03D00F2E3FF660AF3B
:1018E000AEE722A8019300F013F8019B58E700BF70
:1018F00000F1340191E838009C46A6464CF8045D9E
:1019000090E8FF0FE54600BD90EC210B704700BF4B
:1019100080EC210B704700BF90EC200B704700BF9C
:1019200080EC200B704700BFD0EC200B704700BF4D
:10193000C0EC200B704700BFF0EC0201F0EC02118C
:10194000F0EC0221F0EC0231F0EC0241F0EC02513B
:10195000F0EC0261F0EC0271F0EC0281F0EC02912B
:10196000F0EC02A1F0EC02B1F0EC02C1F0EC02D11B
:10197000F0EC02E1F0EC02F1704700BFE0EC020194
:10198000E0EC0211E0EC0221E0EC0231E0EC02417B
:10199000E0EC0251E0EC0261E0EC0271E0EC02816B
:1019A000E0EC0291E0EC02A1E0EC02B1E0EC02C15B
:1019B000E0EC02D1E0EC02E1E0EC02F1704700BFA4
:1019C000B0FC0181B0FC0191B0FC01A1B0FC01B1FF
:1019D000704700BFA0FC0181A0FC0191A0FC01A107
:1019E000A0FC01B1704700BFEC4600B52DE90050E6
:1019F0002DE9FF1F4FF000032DE90C0001A9FFF7AF
:101A0000E9FBDDF840E012B0704700BFEC4600B5DE
:101A10002DE900502DE9FF1F4FF000032DE90C00C8
:101A200001A9FFF711FCDDF840E012B0704700BFDC
:101A3000EC4600B52DE900502DE9FF1F4FF00003E3
:101A40002DE90C0001A9FFF721FCDDF840E012B000
:101A5000704700BFEC4600B52DE900502DE9FF1F8F
:101A60004FF000032DE90C0001ABFFF7E3FBDDF8BD
:101A700040E012B0704700BFEC4600B52DE90050C1
:101A80002DE9FF1F4FF000032DE90C0001AAFFF71D
:101A90005BFCDDF840E012B0704700BF037A1BB971
:101AA000437A43B9B02070475A1E036802721A0283
:101AB0000260180E70474268013B10B4437213680D
:101AC0000321141D01721A02446002605DF8044B88
:101AD000180E704700B585B003AA0023009219467E
:101AE0000C22FFF7E3FB039805B05DF804FB00BF91
:101AF000F0E700BF2DE9F043064685B00D464FF0F4
:101B000000082846FFF7CAFFB028044600F0B4805A
:101B100020F07F0313F0FF0320D000F0F003802BB0
:101B20007AD0902B35D0A02B48D0B02B5CD0C02BD6
:101B300000F0898000F0F803D02B0BD100F00702F1
:101B4000013242F40022052301213046FFF7A8FDAF
:101B50000028D6D0092005B0BDE8F0830DF10C09AE
:101B600019468700CDF800900D223046FFF79EFB06
:101B7000FFB2039BCDF80090043760064CBFDF1B1B
:101B8000FF18002319460D2230460397FFF7B4FBD8
:101B9000B7E700F00D030D2BDCD003AF002300F0FE
:101BA0000F02194600973046FFF780FB002300978D
:101BB00019460D223046FFF79FFBA2E7C2434FF4C0
:101BC0007F6302F0070243FA02F2010702EA03020E
:101BD0004FF0000348BF42F4804219463046FFF7F9
:101BE0005FFD0028B6D18CE7B1284AD0B22853D087
:101BF000B32800F0818000F0FC03B42BAAD000F0E1
:101C000007020132012342F4002219463046FFF751
:101C100047FD00289ED174E72846FFF73FFF2402C6
:101C20002043B0F5004F95D004010023A2B219461D
:101C30003046FFF735FD00288CD114F4004F18BF53
:101C40004FF001085DE7C62862D0C7286CD000F0CD
:101C5000F803C02B7BD0C82800F09180C9287FF4FE
:101C600079AF2846FFF71AFF020300F00F0002F4D5
:101C700070220130024366E7B8F1000F6ED00020F9
:101C800069E72846FFF70AFF024600283FF462AFE3
:101C900010F0F003B9D05DE700230DF10C090D221F
:101CA0001946CDF800903046FFF700FB2846FFF7B5
:101CB000F5FE02064FF002040CD5039B00F07F00F6
:101CC000A040034428460393FFF7E8FE030604F10F
:101CD0000704F2D4039BCDF8009000F07F0000FAD7
:101CE00004F203F501740023144419460D22304612
:101CF0000394FFF701FB04E72846FFF7CFFE01033B
:101D000000F00F0001F47021421C01230A437CE71C
:101D10002846FFF7C3FE010300F00F0001F4702115
:101D2000421C03230A4370E72846FFF7B7FE02462A
:101D300000283FF40FAF10F0F0037FF40BAF042145
:101D40003046FFF7ADFC00287FF404AFD9E600F081
:101D50000F020132032342F4202256E703AC43462C
:101D60000E22414600943046FFF7A0FA0094304618
:101D700043460F224146FFF7BFFA4046EBE62846AE
:101D8000FFF78CFE00F0F00200F00F031032013379
:101D900043EA0232D7E600BF10B5C36C84B05A687C
:101DA00003208DF80C00DC798DF80D401202083309
:101DB000084601A901920293FFF79CFE04B010BDF2
:101DC00008B5FFF795FE806C08BD00BF08B5FFF7AA
:101DD0008FFEC36CD87903EB8000083008BD00BFCC
:101DE00008B500F005F800BF08B5FFF7F9FF00BF20
:101DF00008B5062000F038F8012000F061F810B5B1
:101E0000431E0A44914204D011F8014B03F8014FDC
:101E1000F8E710BD1F2938B504460D4604D916232E
:101E200003604FF0FF3038BD426C12B152F82130E0
:101E30004BB9204600F032F82A4601462046BDE85C
:101E4000384000F019B8012B0CD0591C03D11623CF
:101E50000360012038BD0024284642F825409847F9
:101E6000204638BD002038BD024B01461868FFF7F8
:101E7000D1BF00BF6400002038B5074C00230546E1
:101E800008461146236000F013F8431C02D1236872
:101E900003B12B6038BD00BF9000002000F000B8F7
:101EA000024B58221A604FF0FF307047900000201C
:101EB000024B58221A604FF0FF307047900000200C
:101EC000FEE700BFF8B500BFF8BC08BC9E467047EF
:101ED000F8B500BFF8BC08BC9E4670471112131439
:0C1EE0000D0E0F10040000200000000098
:101EEC0005970181B0B008840000000008B10181A1
:101EFC00B0B000840000000008B10181B0B00084D3
:041F0C0000000000D1
:101F10004CE5FF7F0100000080E6FF7FD0FFFF7FE0
:101F200040E7FF7F0100000088F0FF7FB0A902803A
:101F300020F1FF7FB0B0A88070F1FF7F01000000AA
:101F40007CF1FF7FB0B0AA80B4F1FF7FAE71B280A8
:101F500080F2FF7F010000007CF2FF7FAB3F388002
:101F6000D4F2FF7F01000000E0F2FF7FB0B0AA8052
:101F70001CF3FF7F01000000D0F3FF7FAB0EB280A7
:101F800038F4FF7FB0AF0A800CF7FF7F010000003C
:101F900010F7FF7FAB3F048058F9FF7F010000007E
:101FA00034FBFF7F0084048048FBFF7F01000000BA
:101FB00044FBFF7FB0AD0480E0FDFF7FB0A803804D
:101FC00000FEFF7F34FFFF7F04FEFF7F38FFFF7FAF
:081FD00010FEFF7F010000007C
:101FD8000090D00300000000000000000000000096
:101FE80000000000000000000000000000000000E9
:101FF80000000000000000000000000000000000D9
:1020080000000000000000000000000000000000C8
:1020180000000000000000000000000000000000B8
:1020280000000000000000000000000000000000A8
:102038000000000004000020250400000104000046
:042048000000000094
:04000003000009B53B
:00000001FF
